:1012D70041001C00410007004100020041001B00C3
:1012E70041001F0041001E0148000D8040201008EA
:1012F70004020144002D3F8000004400243F800089
:1013070000440028000000006200003100000000D7
:1013170000000000000000000000000000000000C6
:1013270000000000000000000000000000000000B6
:1013370000000000000000000000000000000000A6
:101347000000000000000000000000000000000096
:101357000000000000000000000000000000000086
:101367000000000000000000000000000000000076
:101377000000000000000000000000000000000066
:101387000000000000000000000000000000000056
:101397000000000000000000000000000000000046
:1013A7000000000000000000000000000000000036
:1013B7000000000000000000000000000000000026
:1013C7000000000000000000000000000000000016
:1013D7000000000000000000000000000000000006
:1013E70000000000000000000000000000000000F6
:1013F70000000000000000000000000000000000E6
:1014070000000000000000000000000000000000D5
:1014170000000000000000000000000000000000C5
:1014270000000000000000000000000000000000B5
:1014370000000000000000000000000000000000A5
:101447000000000000000000000000000000000095
:101457000000000000000000000000000000000085
:101467000000000000000000000000000000000075
:101477000000000000000000000000000000000065
:101487000000000000000000000000000000000055
:101497000000000000000000000000000000000045
:1014A7000000000000000000000000000000000035
:1014B7000000000000000000000000000000000025
:1014C7000000000000000000000000000000000015
:1014D7000000000000000000000000000000000005
:1014E70000000000000000000000000000000000F5
:1014F70000000000000000000000000000000000E5
:0C150700000000000000000000000000D8
:10083E00121DC21219F6E490001BF0121AFE90005F
:10084E001DEFF0BF01069000027401F090001DE054
:10085E00FFB40205E4900002F0EFB4031D90002DEA
:10086E00E0FCA3E0FDA3E0FEA3E0FFE4FBFAF978D1
:10087E0040120F4790002D12124590001DE0B40457
:10088E001D90002DE0FCA3E0FDA3E0FEA3E0FFE43D
:10089E00FBFAF9784012105090002D12124590007C
:1008AE001DE0B4050B90001B7401F0E490001DF0E8
:1008BE0090001DE0B4060B90001B7402F0E4900053
:1008CE001DF090001DE0FFB407069000027402F0C8
:1008DE00EFB4080690001FE004F0EFB4090C90008E
:1008EE001FE0D394004003E014F090001DE0B40A22
:1008FE0004A3E004F090001DE0B40B04A3E014F098
:10090E00900002E0B401057F2E121D4A900002E015
:10091E00640260030209EE121DA79000237401F019
:10092E00900023E0FFC3948040030209E390001F70
:10093E00E0FDEF2DFFE433FEEF25E0FFEE33FE7416
:10094E002F2FF58274003EF583E0FCA3E0FD743199
:10095E002FF58274003EF583E0FAA3E0FBC39DFF02
:10096E00EA9CFE900003F0A3EFF0D39400EE6480B7
:10097E0094804013AD03900003A3E0FFED2FFB9096
:10098E000023E0FF121785D3900004E0940090003E
:10099E0003E0648094805034900023E0FFC0079001
:1009AE00001FE0FDEF2DFDE433FCED25E0FDEC3303
:1009BE00FC74312DF58274003CF583A3E0FB9000AE
:1009CE0003A3E0FEEB2EFDD007121785900023E067
:1009DE0004F002092E7F2E121D4A9000027401F0BF
:1009EE00900002E070287F2E121D4A7F26121D4AAB
:1009FE00E4FF121D4A7F02121D4A7F07121D4A7F15
:100A0E0007121D4AE4FF121D4A7FFF121D4A900075
:100A1E001CE06003020B7390001FE0248090002303
:100A2E00F090001FE0FF900023E0D39F5003020BD5
:100A3E0062E4900021F0900021E0FDC3940850156F
:100A4E00900023E0FF121D8BE4FF121CA0900021EA
:100A5E00E004F080E190002C7407F07F9C121B6480
:100A6E00900005EEF0FAA3EFF0FB90002DE0FCA352
:100A7E00E0FDA3E0FEA3E0FF900024121245AD03BB
:100A8E00AC02EC1210F290002DE0F8A3E0F9A3E016
:100A9E00FAA3E0FB120F4712112B900023E0FD7515
:100AAE00F002A42431F582E5F03400F583EEF0A3D4
:100ABE00EFF075F002EDA4242FF582E5F03400F589
:100ACE0083E0FEA3E0FF75F002EDA42431F582E58C
:100ADE00F03400F583E0FCA3E0FDC39FFFEC9E9095
:100AEE000003F0A3EFF0D3ED9410EC9400405C9073
:100AFE000003E0FEA3E0FFD39400EE6480948040F8
:100B0E001C900023E075F002A42431F582E5F03448
:100B1E0000F583A3E0FD2FFBE4FF12178590000381
:100B2E00E0FEA3E0FFD39400EE64809480501C900E
:100B3E000023E075F002A42431F582E5F03400F5CF
:100B4E0083A3E0FB2FFDE4FF121785900023E01432
:100B5E00F0020A2F900002E070057F2F121D4A90BE
:100B6E00001C7401F090001CE064016003020E3A58
:100B7E00900023F0900021F0900021E0FDC3940836
:100B8E005015900023E0FF121D8BE4FF121CA09065
:100B9E000021E004F080E190002C7407F090001E1C
:100BAE00E0FF900020E0C39F40127F9C121B6490D8
:100BBE000005EEF0A3EFF0E4900020F0900005E0C9
:100BCE00FCA3E0FDEC1210F290002DE0F8A3E0F98A
:100BDE00A3E0FAA3E0FB120F4712112B900023E0C3
:100BEE0075F002A42431F582E5F03400F583EEF0C1
:100BFE00A3EFF090001574FFF0E490001AF090004F
:100C0E0002E06003020E3A900023747FF0900023FE
:100C1E00E0FBD394005003020D1B900031E0FCA3C7
:100C2E00E0FD900034E09DFE900033E09C900003C8
:100C3E00F0A3CEF0900023E0FF75F002A4242DF572
:100C4E0082E5F03401F583E0FCA3E0FD75F002EFE0
:100C5E00A4242FF582E5F03401F583ECF0A3EDF03A
:100C6E00900023E0FF75F002A4242FF582E5F03406
:100C7E0000F583E0FCA3E0FD75F002EFA42431F54E
:100C8E0082E5F03400F583ECF0A3EDF090001AE06D
:100C9E00FF75F002EBA42431F582E5F03400F58304
:100CAE00E0FCA3E0FDD39FEC9400400590001AED0C
:100CBE00F0900015E0FFC3ED9FEC940050189000EB
:100CCE0023E075F002A42431F582E5F03400F583BB
:100CDE00A3E0900015F090001AE0FF7E0090003126
:100CEE00E0FCA3E0FDB5071CEEB50418A3E0FEA3DF
:100CFE00E0FFED6F7002EC6E600A9000161212515A
:100D0E0000000000900023E014F0020C1B90001570
:100D1E00E0FF90001AE0C39F900007F0900003E000
:100D2E00FEA3E0FFD39400EE64809480400D90000B
:100D3E0033A3E0FD2FFBE4FF121785900003E0FEC6
:100D4E00A3E0FFD39400EE64809480500D900033A6
:100D5E00A3E0FB2FFDE4FF12178590001BE064015A
:100D6E007075900021F0900021E0FDC39403502394
:100D7E00E4FF121D8BE4900022F0E4FF121CA09001
:100D8E000022E004F0E0C3941340EF900021E00451
:100D9E00F080D3E4FBFA79C87842900016E0FCA309
:100DAE00E0FDA3E0FEA3E0FF121050A804A905AADF
:100DBE0006AB07E4FFFE7D807C3F12105012112B14
:100DCE00AB07AA06900235E4F0A37403F0A37406F1
:100DDE00F0E4FDFF1216BF90001BE06402704D9010
:100DEE000021F0900021E0FDC39403503F7F2812B4
:100DFE001D8B9000227428F0E4FF121CA09000229C
:100E0E00E004F0E0C3943B40EF900007E0FB7A0073
:100E1E00900235E4F0A37403F0A37406F0E4FD7FB2
:100E2E00281216BF900021E004F080B7900002E077
:100E3E0070057F2F121D4A7F0A7E00121DD90208EF
:010E4E00445F
:03000B00021A7B5B
:101A7B00C0E0C0F0C083C082C0D075D000C000C031
:0D1A8B0001C002C003C004C005C006C007B2
:101A9800758A66758CFC900001E004F07006900071
:101AA80000E004F0D3900001E0940A900000E09474
:101AB800004028E4F0A3F0900016E0FCA3E0FDA3AA
:101AC800E0FEA3E0FFE4FBFA7980783F120E56901F
:0B1AD8000016121245900020E004F000
:101AE300D007D006D005D004D003D002D001D00057
:0B1AF300D0D0D082D083D0F0D0E03201
:101DD900EF1FAC0670011E4C600A7D027CEFDCFE31
:041DE900DDFC80ECB1
:011DED0022D3
:10000E002020003C3C00000000000000000000002A
:10001E00000000000000000000F8000000000000DA
:10002E0000333000000000160E00160E0000000017
:10003E0000000000000040C07840C0784000043F3F
:10004E0004043F040400007088FC0830000000180F
:10005E0020FF211E0000F008F000E0180000002133
:10006E001C031E211E0000F00888700000001E21D7
:10007E00232419272110000000160E000000000096
:10008E00000000000000000000E018040200000064
:10009E0000071820400000020418E0000000004095
:1000AE00201807000000404080F08040400002020F
:1000BE00010F01020200000000F00000000001012B
:1000CE00011F01010100000000000000000000B04F
:1000DE0070000000000000000000000000000001A1
:1000EE0001010101010100000000000000000030CC
:1000FE003000000000000000000080601804006066
:10010E0018060100000000E010080810E000000FC3
:10011E00102020100F00001010F80000000000202A
:10012E00203F202000000070080808887000003072
:10013E00282422213000003008888848300000181A
:10014E00202020110E000000C02010F80000000733
:10015E000424243F240000F80888880808000019A9
:10016E00212020110E0000E0108888180000000FDA
:10017E00112020110E0000380808C83808000000B1
:10018E00003F000000000070880808887000001C06
:10019E00222121221C0000E010080810E0000000BF
:1001AE00312222110F00000000C0C000000000002C
:1001BE00003030000000000000C0C0000000000051
:1001CE0080B0700000000000804020100800000188
:1001DE00020408102000404040404040400004040B
:1001EE0004040404040000081020408000000020D5
:1001FE00100804020100007048080808F000000012
:10020E00003036010000C030C828E810E0000718A2
:10021E00272423140B000000C038E0000000203C0F
:10022E0023020227382008F8888888700000203FB3
:10023E00202020110E00C0300808080838000718CA
:10024E0020202010080008F808080810E000203FC1
:10025E00202020100F0008F88888E8081000203FA2
:10026E0020202320180008F88888E8081000203F76
:10027E00200003000000C0300808083800000718EE
:10028E002020221E020008F808000008F808203F6F
:10029E00210101213F20000808F808080000002075
:1002AE00203F2020000000000808F8080800C08049
:1002BE0080807F00000008F888C028180800203FC2
:1002CE0020012638200008F8080000000000203F1A
:1002DE0020202020300008F8F800F8F80800203F11
:1002EE00003F003F200008F830C00008F808203F0B
:1002FE00200007183F00E01008080810E0000F105B
:10030E00202020100F0008F808080808F000203FF1
:10031E00210101010000E01008080810E0000F188C
:10032E00242438504F0008F8888888887000203FB1
:10033E002000030C302000708808080838000038B0
:10034E00202121221C00180808F8080818000000B7
:10035E00203F2000000008F808000008F808001FE1
:10036E00202020201F000878880000C838080000D0
:10037E0007380E010000F80800F80008F800033CEA
:10038E000700073C030008186880806818082030B2
:10039E002C03032C30200838C800C8380800000091
:1003AE00203F2000000010080808C8380800203838
:1003BE00262120201800000000FE0202020000008C
:1003CE00007F40404000000C30C0000000000000E4
:1003DE0000010638C00000020202FE0000000040CC
:1003EE0040407F000000002010080408102000008C
:1003FE0000000000000000000000000000008080EF
:10040E0080808080808000020408000000000000D0
:10041E0000000000000000008080808000000019B5
:10042E00242222223F2008F8008080000000003F96
:10043E00112020110E000000008080800000000EB0
:10044E00112020201100000000808088F800000E8E
:10045E00112020103F200000808080800000001FAF
:10046E00222222221300008080F088888818002023
:10047E00203F202000000000808080808000006BE4
:10048E0094949493600008F8008080800000203FD0
:10049E00210000203F2000809898000000000020DE
:1004AE00203F20200000000000809898000000C02F
:1004BE008080807F000008F8000080808000203F50
:1004CE0024022D302000000808F800000000002053
:1004DE00203F202000008080808080808000203F90
:1004EE0020003F20003F0080800080800000002020
:1004FE003F2100203F200000808080800000001FF0
:10050E00202020201F00808000808000000080FFBF
:10051E00A12020110E000000008080808000000EBF
:10052E00112020A0FF80808080008080800020200D
:10053E003F21200001000000808080808000003379
:10054E00242424241900008080E080800000000014
:10055E00001F202000008080000000808000001F0F
:10056E00202020103F2080808000008080800001AD
:10057E000E300806010080800080008080800F30E1
:10058E000C030C300F000080800080808000002063
:10059E00312E0E312000808080000080808080818E
:1005AE008E701806010000808080808080000021FF
:1005BE00302C2221300000000000807C020200005E
:1005CE000000003F404000000000FF00000000005F
:1005DE000000FF0000000002027C800000000040CE
:1005EE00403F00000000008040408000008000007E
:1005FE000000000101000000000000000000002FBC
:10060E00000000000700070000147F147F14002470
:10061E002A7F2A120023130864620036495522509D
:10062E0000000007000000001C22410000004122D3
:10063E001C000014083E08140008083E08080000BC
:10064E0000A06000000808080808000060600000B4
:10065E00002010080402003E5149453E0000427F32
:10066E004000004261514946002141454B3100187E
:10067E0014127F10002745454539003C4A49493040
:10068E0000017109050300364949493600064949FA
:10069E00291E000036360000000056360000000805
:1006AE0014224100001414141414000041221408E2
:1006BE00000201510906003E4955592E007C1211C7
:1006CE00127C007F49494936003E41414122007F5C
:1006DE004141221C007F49494941007F0909090116
:1006EE00003E4149497A007F0808087F0000417F9B
:1006FE004100002040413F01007F08142241007F4D
:10070E0040404040007F020C027F007F0408107FB3
:10071E00003E4141413E007F09090906003E41511C
:10072E00215E007F091929460046494949310001D9
:10073E00017F0101003F4040403F001F2040201F2D
:10074E00003F4038403F00631408146300070870F0
:10075E00080700615149454300007F4141000002F6
:10076E0004081020000041417F0000040201020431
:10077E00004040404040000001020400002054545C
:10078E005478007F484444380038444444200038AC
:10079E004444487F00385454541800087E0901021E
:1007AE000018A4A4A47C007F080404780000447DF3
:1007BE004000004080847D00007F1028440000002F
:1007CE00417F4000007C04180478007C0804047803
:1007DE0000384444443800FC2424241800182424EF
:1007EE0018FC007C080404080048545454200004EB
:1007FE003F444020003C4040207C001C2040201CF8
:10080E00003C4030403C004428102844001CA0A06E
:10081E00A07C004464544C440000087F410000005A
:10082E00007F00000000417F080000080408100847
:101D4A00C2A3C2A4E4FEC2A0EF30E704D2A180027B
:101D5A00C2A1D2A0EF25E0FF0EEEB408E9D2A4D2C8
:011D6A00A3D5
:011D6B002255
:0F1C9100F583E5822AF582E43583F583E493FF3A
:101CA000D2A3C2A4E4FEC2A0EF30E704D2A1800216
:101CB000C2A1D2A0EF25E0FF0EEEB408E9D2A4D273
:011CC000A380
:011CC1002200
:1019F600C2A27FC87E00121DD9D2A27FAE121D4A96
:101A06007FD5121D4A7F80121D4A7FA8121D4A7F6C
:101A16003F121D4A7FD3121D4AE4FF121D4A7F4022
:101A2600121D4A7FA1121D4A7FC8121D4A7FDA1273
:101A36001D4A7F12121D4A7F81121D4A7FCF121D39
:101A46004A7FD9121D4A7FF1121D4A7FDB121D4AB9
:101A56007F30121D4A7FA4121D4A7FA6121D4A7F9F
:101A66008D121D4A7F14121D4A7FAF121D4A7F64D4
:051A76007E00021DD9F5
:101D8B00AC07EC540FFF121D4AEC54F0C4540F4433
:0C1D9B0010FF121D4AED44B0FF021D4A6B
:101DA700E4FBAD03E4FF121D8BE4FDE4FF121CA06E
:0A1DB7000DEDB480F60BEBB408E864
:011DC10022FF
:101DEE00AD07E4FF121D8BE4FDE4FF121CA00DED08
:031DFE00B480F6B8
:011E010022BE
:101E02007D047F01121D8B7D017F80121CA00DEDD0
:031E1200B480F6A3
:011E150022AA
:101E16007B02AD03E4FF121D8B7FFF121CA00BEBB0
:031E2600B408EF0E
:011E29002296
:10196B00FEEF8EF0A4FFE02FFFA3E0FD90023DEE13
:01197B00F07B
:07197C0090023AEFF0A9050B
:1019830090023DE06406701F90023AE0FF121D8B47
:10199300E4FA75F006EBA42444F582E5F03405126D
:1019A3001C910AEAB406EB90023DE0640870439090
:1019B300023AE0FFAD01121D8BE4FA75F010EBA4BF
:1019C3002414F582E5F034FE121C910AEAB408EB04
:1019D30090023AE0FFE904FD121D8BE4FA75F01062
:1019E300EBA4241CF582E5F034FE121C910AEAB440
:0219F30008EBFF
:0119F50022CF
:0E1BC9007BFF7A00790E90024B7406F07F7459
:101BD700900246EFF0A3EDF0A3EBF0A3EAF0A3E940
:011BE700F00D
:101BE800E490024CF0900248E0FBA3E0FAA3E0F98D
:101BF80090024CE0FFF5827583001211ACFB601275
:101C080090024BE090024612196B90024CE004F0EF
:021C180080D377
:011C1A0022A7
:0C1C5700CF24FFFDEF34FFFC7F0A7E006D
:0E1C630090023AEEF0A3EFF0A3ECF0A3EDF048
:101C71007F017E0090023C74FFF5F012122145F0C5
:0F1C8100600D90023AE0FCA3E0FD1211D980E55E
:011C90002231
:0E16BF00900231EFF0A3EDF0A3EAF0A3EBF000
:1016CD00E4900238F0A3F0900235E0FEA3E0FF9025
:1016DD000238E0FCA3E0FDC39FEC9E40030217849B
:1016ED00C3900233E0648094804018900236E09DF0
:1016FD00FF900235E09C121C57900233E0FCA3E0F2
:10170D00FD803F900237E0FE900231E0C39EFFA3C3
:10171D00E0FD90023DEEF07B2D12197C900238E039
:10172D00FEA3E0FFC3900236E09FFF900235E09EDE
:10173D00121C57900233E0FCA3E0FDC3E49DFDE4D1
:10174D009CFCCFCDCFCECCCE1211EB7C007D0A12FE
:10175D0011EBED2430FB900238A3E0FF900237E04F
:10176D0090023112196B900239E004F0700690026C
:07177D0038E004F00216D46D
:011784002242
:08184A0090024DEEF0A3EFF057
:10185200E4A3F0A3F090024EE02401FF90024DE0D9
:101862003400FE90024FE0FCA3E0FDC39FEE6480D3
:10187200F8EC6480985013121BC9900250E004F0F7
:1018820070D390024FE004F080CB90024EE024022D
:10189200FE90024DE03400900251F0A3CEF090028F
:1018A20051E0FEA3E0FFC39409EE648094805015DA
:1018B200AD07121BC9900252E004F070E190025190
:1018C200E004F080D990024DA3E004FD7BFF7A0092
:0D18D200791190024B7406F07F74021BD751
:101CF2007A02AD027F01121D8B7B02E4FF121CA04F
:101D02000BEBB481F60AEAB407E87D077F01121DE6
:0D1D12008B7B027F80121CA00BEBB481F6CE
:011D1F0022A1
:05178500900231EFF0BD
:10178A00E4FAC3743F9DA3F0C3743F9BA3F0E4FB48
:10179A0079FF900233E0FFC39A402CEA2408FDE463
:1017AA0033FCC3EF9DEC6480F87480985019E0C351
:1017BA009AFFE9A807088002C313D8FCF9A807080A
:1017CA008002C333D8FCF9900232E0FFC39A403456
:1017DA00EA2408FDE433FCC3EF9DEC6480F87480CE
:1017EA00985021EA2407FFE0FEC3EF9EFFE9A8070D
:1017FA00088002C333D8FCF9A807088002C313D8AB
:10180A00FCF9801FEA2408FFE433FE900233E0C3A8
:10181A009FEE6480F87480985007900232E09A50E4
:10182A0002E4F9900231E0FFAD03121D8BAF011201
:0F183A001CA074082AFA0BEB6408600302179ACB
:01184900227C
:0D1513004102450041024300420241000038
:07000300900240E0FFE4F071
:01000A0022D3
:101AFE00E4FF7590FFC2932097010F2096027F0599
:101B0E002095027F092094027F0D7590FFC29220CE
:101B1E0097027F022096027F062095027F0A20946C
:101B2E00027F0E7590FFC2912097027F03209602CE
:101B3E007F072095027F0B2094027F0F7590FFC2C6
:101B4E00902097027F042096027F082095027F0C3A
:051B5E002094027F103D
:011B6300225F
:1015210090023EE0A3F0121AFE90023EEFF0A3E01B
:10153100FF70030216BE900243E004F0900242E005
:1015410004F07006900241E004F090023EE0FE607B
:10155100030215FD900243E0A3F0E4900243F0EF93
:10156100B4010FA3E0D394325008900240740102F9
:1015710015F790023FE0B40210900244E0D3943298
:1015810050079002407402806D90023FE0FFB40367
:1015910010900244E0D394325007900240740380CB
:1015A10055EFB40410900244E0D3943250079002F6
:1015B100407404804190023FE0B40510900244E081
:1015C100D3943250079002407405802A90023FE084
:1015D100FFB40610900244E0D394325007900240C9
:1015E10074068012EFB40714900244E0D394325091
:1015F1000B9002407407F0E4900244F0EE70030295
:1016010016B7C3900242E09432900241E094005038
:10161100030216BE900245E004F0E0940A50030272
:1016210016BE90023FE0FFB4010E90023EE0B4010D
:101631000790024074118077EFB4020E90023EE0F1
:10164100B402079002407412806590023FE0B40337
:101651000E90023EE0B40307900240741380509054
:10166100023FE0FFB4040E90023EE0B40407900292
:10167100407414803AEFB4050E90023EE0B40507C1
:101681009002407415802890023FE0B4060E90024B
:101691003EE0B406079002407416801390023FE0CA
:1016A100B4071A90023EE0B407139002407417F099
:0D16B100E4900245F022E4900241F0A3F025
:0116BE002209
:101CC200900253EFF0A3ECF0A3EDF0121E407FA0C0
:101CD200121D20121E2A900253E0FF121D20121E16
:101CE2002A900254A3E0FF121D20121E2A021E494E
:051C1B00900256EFF0FD
:101C2000121E407FA0121D20121E2A900256E0FFB5
:101C3000121D20121E2A121E407FA1121D20121EEC
:101C40002A121D6C900257EFF07F01121E36121EF1
:061C500049900257E0FF7D
:011C5600226B
:101DC2005389F0438901758A18758CFCC28DD28CB7
:071DD200D2A9D2AFC2B92271
:091E4000D2A0D2A1C2A0C2A122CD
:071E4900C2A0D2A1D2A02229
:021D2000AD070D
:101D2200E4FB74807E00A803088006CEA2E713CEEF
:101D320013D8F8FFEDF582EF558224FF92A0D2A1CD
:071D4200C2A10BEBB408DBAA
:011D49002277
:101D6C00E4FFD2A0FED2A130A00D7480A80608809A
:0E1D7C0002C313D8FC4FFFC2A10EEEB408E75D
:011D8A002236
:0A1E3600EF24FF92A0D2A1C2A12266
:0B1E2A00D2A0D2A1A2A0E433FFC2A10D
:011E3500228A
:021B6400AD07CB
:101B6600E4900231F0A3F0C2B6C2B5FB74807E00E9
:101B7600A803088006CEA2E713CE13D8F8FFEDF52A
:101B860082EF558224FF92B4D2B6C2B60BEBB408EC
:101B9600DBE4FBD2B6C2B630B71AE47E80A80308EF
:101BA6008005CEC313CE13D8F9FF900231E04EF074
:101BB600A3E04FF00BEBB410DAD2B5900231E0FFA0
:021BC6007E009F
:011BC80022FA
:100E4F00021197E86480F8E933E83360110460F029
:100E5F00ED33EC337009E8FCE9FDEAFEEBFF220409
:100E6F0060DED3EB9FEA9EE99DE8C2E78CF0C2F704
:100E7F0095F0400CE8CCF8E9CDF9EACEFAEBCFFBD0
:100E8F0012116285D0F05804700320D5B3E80470B6
:100E9F00075002B2D50211A192D5EC0460F7E4CC51
:100EAF00C0E0C398F8603B94186008400DD0E0FB99
:100EBF00021179E4FBFAC9FC8028E830E406E4C9A2
:100ECF00FBE4CAFCE830E305E4C9CACBFCE85407ED
:100EDF006010F8C3E913F9EA13FAEB13FBEC13FCF8
:100EEF00D8F130F52FC3E49CFCEF9BFFEE9AFEED9B
:100EFF0099FDD0E0FBEF4E4D4C701222DB03021137
:100F0F009EEC2CFCEF33FFEE33FEED33FDED30E7BF
:100F1F00EB021179EF2BFFEE3AFEED39FDD0E0FB3E
:100F2F0050130BBB00030211A1ED13FDEE13FEEFE7
:080F3F0013FFEC13FC02117911
:100F4700EC4D6011E8497017ED33EC3304600DE4A4
:100F5700FCFFFEFD22E933E8330470F80211971213
:100F6700116258046009E4CC248150062850090214
:100F770011A128400302119EC0E0EB4A7044B980DA
:100F870006D0E0FB02118DEF4E701CBD8008EBFF11
:100F9700EAFEE9FD80EBE98DF0A4FEE5F0021030F2
:100FA700E9CDF9EAFEEBFFEF89F0A4FCE5F0CE8985
:100FB700F0A42EFFE435F0CD89F0A42DFEE435F042
:100FC7008067EF4E7005BD80D780C3EF8BF0A4AC70
:100FD700F0EE8BF0A42CFCE435F0F8EF8AF0A42CAB
:100FE700E5F038FCE433CB8DF0A42CFCE5F03BF8BE
:100FF700EE8AF0A42CFCE5F038F8E433CF89F0A4AE
:101007002CFCE5F038CF3400CE89F0A42FFFE5F0B3
:101017003EFEE433C98DF0A42EFEE5F039CD8AF00B
:10102700A42FFFE5F03EFEE43DFD33D0E0FB500783
:101037000BBB000F0211A1EC2CFCEF33FFEE33FECC
:06104700ED33FD021179FA
:10104D000211A1EC5D046005E859047003021197CB
:10105D00121162580460F6EC4860F2EC7004FDFE6B
:10106D00FF22C860DB2481C85009C3986002500676
:10107D0002119E9850CAF582E9294B4A7005AB8240
:10108D0002118D75F0007C1A7880C3EF9BEE9AEDFE
:10109D0099400DC3EF9BFFEE9AFEED99FDE842F0EE
:1010AD00DC23ACF0D0E0FFD0E0FED0E0FDAB822041
:1010BD00E7101BEB60BAEC2CFCEF33FFEE33FEEDCB
:1010CD0033FD021179E803F830E705C0F075F00043
:1010DD00EF2FFFEE33FEED33FD40B830E7C280AAAF
:1010ED0075F020800E75F010800575F0087D007E7E
:1010FD00007F003392D530D503121237EC334010F8
:10110D00EF33FFEE33FEED33FDEC33FCD5F0ED2286
:0E111D00E5F0247EA2D513CC92E7CDCEFF22C2
:10112B00EDD2E7CD33EC3392D524814006E4FFFEBC
:10113B00FDFC22FCE4CFCECDCC24E0501174FF801B
:10114B00EDC3CC13CCCD13CDCE13CECF13CF0470B8
:07115B00F030D5DE0212376F
:10116200E9D2E7C933E833F892D5EDD2E7CD33ECD3
:0711720033FC5002B2D5224C
:10117900EC30E7100FBF000C0EBE00080DBD0004D7
:101189000BEB6014A2D5EB13FCED92E7FD2274FF83
:10119900FCFDFEFF22E480F8A2D574FF13FC7D80DC
:0311A900E480EFF0
:030000000218DF04
:0C18DF00787FE4F6D8FD75810702192619
:1011AC00BB010CE58229F582E5833AF583E02250F8
:1011BC0006E92582F8E622BBFE06E92582F8E22242
:0D11CC00E58229F582E5833AF583E493225C
:1011D900EF8DF0A4A8F0CF8CF0A428CE8DF0A42E2A
:0211E900FE22E4
:1011EB00C2D5EC30E709B2D5E4C39DFDE49CFCEE1F
:1011FB0030E715B2D5E4C39FFFE49EFE121282C303
:10120B00E49DFDE49CFC800312128230D507C3E4FD
:06121B009FFFE49EFE228D
:10122100A3F8E0C5F025F0F0E58215827002158380
:06123100E0C838F0E822DD
:0E123700C3E49FFFE49EFEE49DFDE49CFC22C8
:0C124500ECF0A3EDF0A3EEF0A3EFF0221C
:10125100A8828583F0D083D082121268121268129C
:101261001268121268E473E493A3C583C5F0C583C1
:10127100C8C582C8F0A3C583C5F0C583C8C582C8E7
:01128100224A
:1018EB0002083EE493A3F8E493A34003F68001F2CD
:1018FB0008DFF48029E493A3F85407240CC8C333FE
:10190B00C4540F4420C8834004F456800146F6DFCC
:10191B00E4800B01020408102040809012D7E47E73
:10192B00019360BCA3FF543F30E509541FFEE493C1
:10193B00A360010ECF54C025E060A840B8E493A388
:10194B00FAE493A3F8E493A3C8C582C8CAC583CAB3
:10195B00F0A3C8C582C8CAC583CADFE9DEE780BE6B
:0115200000CA
:10128200BC000BBE0029EF8DF084FFADF022E4CC50
:10129200F875F008EF2FFFEE33FEEC33FCEE9DEC19
:1012A200984005FCEE9DFE0FD5F0E9E4CEFD22ED5F
:1012B200F8F5F0EE8420D21CFEADF075F008EF2FA9
:1012C200FFED33FD4007985006D5F0F222C398FD9A
:0512D2000FD5F0EA2237
:00000001FF
